:1000000026C035C034C033C032C03DC130C02FC05F
:100010002EC02DC02CC02BC02AC029C028C0000073
:10002000000037000000000038000000000036002B
:10003000020202020202020202020102040810206D
:100040002004100801020000040000000000112438
:100050001FBECFE5D2E0DEBFCDBF20E0A0E6B0E01E
:1000600001C01D92AB36B207E1F757D1CFC1C8CF5F
:1000700082E087B9369A3699FECF84B195B108955A
:10008000823089F018F4813051F00895833019F0EE
:10009000843009F008958CB58F7D8CBD08958AB5A4
:1000A0008F778ABD08958AB58F7DFBCF1F93CF933D
:1000B000DF93282F30E0F901EC5BFF4F8491F901C9
:1000C000E65CFF4FD491F901E05DFF4FC491CC2372
:1000D000A1F0162F8111D4DFEC2FF0E0EE0FFF1FFF
:1000E000EC5DFF4FA591B4918FB7F894EC9111118D
:1000F00008C0D095DE23DC938FBFDF91CF911F9195
:100100000895DE2BF8CFCF93DF9390E0FC01E65CFF
:10011000FF4F2491805D9F4FFC0184918823D1F093
:1001200090E0880F991FFC01E25EFF4FA591B4910A
:10013000FC01EC5DFF4FC591D49161110EC09FB7DA
:10014000F8948C91E22FE0958E238C932881E22302
:10015000E8839FBFDF91CF9108958FB7F894EC911A
:10016000E22BEC938FBFF6CFCF93DF93EC0161E0EE
:1001700080E0C9DF209729F460E080E0DF91CF9133
:1001800095CFCF3FD10511F461E0F7CFE4E4F0E083
:10019000E491E230B9F030F4E13069F0C038D105D3
:1001A0009CF7EACFE33099F0E430C1F78CB5806278
:1001B0008CBDCBBD04C08AB580688ABDC9BDDF9146
:1001C000CF9108958AB580628ABDC8BDF8CF8CB53D
:1001D00080628CBDCEBDF3CF3FB7F89480916500AF
:1001E00090916600A0916700B091680022B708B6B0
:1001F00001FE05C02F3F19F00196A11DB11D3FBFA3
:10020000BA2FA92F982F8827BC01CD01620F711D2D
:10021000811D911D43E0660F771F881F991F4A9526
:10022000D1F708958F929F92AF92BF92CF92DF92B3
:10023000EF92FF926B017C01CFDF4B015C01C11497
:10024000D104E104F104B1F0C7DF681979098A0922
:100250009B09683E73408105910588F321E0C21A2D
:10026000D108E108F10888EE880E83E0981EA11CF1
:10027000B11CE5CFFF90EF90DF90CF90BF90AF9093
:100280009F908F9008951F920F920FB60F92112496
:100290002F933F938F939F93AF93BF938091610070
:1002A00090916200A0916300B09164003091600071
:1002B00026E0230F2D3758F50296A11DB11D20937E
:1002C00060008093610090936200A0936300B093FC
:1002D00064008091650090916600A0916700B091E4
:1002E00068000196A11DB11D809365009093660082
:1002F000A0936700B0936800BF91AF919F918F91D9
:100300003F912F910F900FBE0F901F90189529E8E5
:10031000230F0396A11DB11DD2CF78948AB58260B8
:100320008ABD8AB581608ABD83B7826083BF83B787
:10033000816083BF89B7826089BF80B7826080BFD8
:1003400080B7816080BF329A319A3098379A8CB5E5
:1003500080648CBD61E081E0D6DE60E082E0D3DEC7
:1003600061E080E0D0DEC6E4D0E00CE310E042E3E0
:10037000E42E40E0F42E50E0C52E50E0D52EFE01D4
:100380008491F8019490F701B490B11027C0A09027
:100390006900B0906A00FFEFAF16B104D4F485E0B5
:1003A000A80EB11CB0926A00A092690061E081E0E1
:1003B0007DDE5EDE26E0959587952A95E1F7BC0106
:1003C000990F880B990B2EDF60E081E06FDEC5018D
:1003D000CBDEC114D10499F213DED1CF811150DEEE
:1003E000EB2DF0E0EE0FFF1FE65DFF4FA591B491FE
:1003F0008C91A0906900B0906A00982241F21A1482
:100400001B043CF7E5E0AE1AB108CCCFF894FFCF5F
:00000001FF
